{
  "contractName": "PrizeDistributor",
  "abi": [
    {
      "inputs": [
        {
          "internalType": "uint64",
          "name": "subscriptionId",
          "type": "uint64"
        }
      ],
      "stateMutability": "nonpayable",
      "type": "constructor"
    },
    {
      "inputs": [
        {
          "internalType": "address",
          "name": "have",
          "type": "address"
        },
        {
          "internalType": "address",
          "name": "want",
          "type": "address"
        }
      ],
      "name": "OnlyCoordinatorCanFulfill",
      "type": "error"
    },
    {
      "anonymous": false,
      "inputs": [],
      "name": "Transfer",
      "type": "event"
    },
    {
      "inputs": [
        {
          "internalType": "address",
          "name": "",
          "type": "address"
        }
      ],
      "name": "randomWordByAddress",
      "outputs": [
        {
          "internalType": "uint256",
          "name": "",
          "type": "uint256"
        }
      ],
      "stateMutability": "view",
      "type": "function",
      "constant": true
    },
    {
      "inputs": [
        {
          "internalType": "uint256",
          "name": "requestId",
          "type": "uint256"
        },
        {
          "internalType": "uint256[]",
          "name": "randomWords",
          "type": "uint256[]"
        }
      ],
      "name": "rawFulfillRandomWords",
      "outputs": [],
      "stateMutability": "nonpayable",
      "type": "function"
    },
    {
      "inputs": [],
      "name": "requestRandomWords",
      "outputs": [],
      "stateMutability": "nonpayable",
      "type": "function"
    },
    {
      "inputs": [
        {
          "internalType": "uint256",
          "name": "_eachWinnerPrize",
          "type": "uint256"
        },
        {
          "internalType": "address[]",
          "name": "_addresses",
          "type": "address[]"
        }
      ],
      "name": "distributeToAddresses",
      "outputs": [],
      "stateMutability": "payable",
      "type": "function",
      "payable": true
    },
    {
      "inputs": [
        {
          "internalType": "uint256",
          "name": "_eachWinnerPrize",
          "type": "uint256"
        },
        {
          "internalType": "address[]",
          "name": "_addresses",
          "type": "address[]"
        },
        {
          "internalType": "address",
          "name": "_ERC20Address",
          "type": "address"
        }
      ],
      "name": "distributeERC20ToAddresses",
      "outputs": [],
      "stateMutability": "nonpayable",
      "type": "function"
    },
    {
      "inputs": [
        {
          "internalType": "address[]",
          "name": "_addresses",
          "type": "address[]"
        },
        {
          "internalType": "uint256[]",
          "name": "_tokenIDs",
          "type": "uint256[]"
        },
        {
          "internalType": "address",
          "name": "_ERC721Address",
          "type": "address"
        }
      ],
      "name": "distributeERC721ToAddresses",
      "outputs": [],
      "stateMutability": "nonpayable",
      "type": "function"
    },
    {
      "inputs": [
        {
          "internalType": "address[]",
          "name": "_participants",
          "type": "address[]"
        },
        {
          "internalType": "uint256",
          "name": "_winnersNum",
          "type": "uint256"
        },
        {
          "internalType": "uint256",
          "name": "_eachWinnerPrize",
          "type": "uint256"
        }
      ],
      "name": "distributeToRandomAddresses",
      "outputs": [],
      "stateMutability": "nonpayable",
      "type": "function"
    },
    {
      "inputs": [
        {
          "internalType": "address[]",
          "name": "_participants",
          "type": "address[]"
        },
        {
          "internalType": "uint256[]",
          "name": "_tokenIDs",
          "type": "uint256[]"
        },
        {
          "internalType": "address",
          "name": "_ERC721Address",
          "type": "address"
        }
      ],
      "name": "distributeERC721ToRandomAddresses",
      "outputs": [],
      "stateMutability": "nonpayable",
      "type": "function"
    },
    {
      "inputs": [
        {
          "internalType": "address[]",
          "name": "_participants",
          "type": "address[]"
        },
        {
          "internalType": "uint256",
          "name": "_winnersNum",
          "type": "uint256"
        },
        {
          "internalType": "uint256",
          "name": "_eachWinnerPrize",
          "type": "uint256"
        },
        {
          "internalType": "address",
          "name": "_ERC20Address",
          "type": "address"
        }
      ],
      "name": "distributeERC20ToRandomAddresses",
      "outputs": [],
      "stateMutability": "nonpayable",
      "type": "function"
    }
  ],
  "bytecode": "0x60a0604052736168499c0cffcacd319c818142124b7a15e857ab600160006101000a81548173ffffffffffffffffffffffffffffffffffffffff021916908373ffffffffffffffffffffffffffffffffffffffff1602179055507fd89b2bf150e3b9e13446986e571fb9cab24b13cea0a43ea20a6049a85cc807cc60001b600255620186a0600360006101000a81548163ffffffff021916908363ffffffff16021790555060038060046101000a81548161ffff021916908361ffff160217905550348015620000ce57600080fd5b5060405162001bea38038062001bea8339818101604052810190620000f491906200023b565b80600160009054906101000a900473ffffffffffffffffffffffffffffffffffffffff168073ffffffffffffffffffffffffffffffffffffffff1660808173ffffffffffffffffffffffffffffffffffffffff1660601b8152505050600160009054906101000a900473ffffffffffffffffffffffffffffffffffffffff166000806101000a81548173ffffffffffffffffffffffffffffffffffffffff021916908373ffffffffffffffffffffffffffffffffffffffff16021790555033600360066101000a81548173ffffffffffffffffffffffffffffffffffffffff021916908373ffffffffffffffffffffffffffffffffffffffff16021790555080600060146101000a81548167ffffffffffffffff021916908367ffffffffffffffff1602179055505050620002a0565b600081519050620002358162000286565b92915050565b60006020828403121562000254576200025362000281565b5b6000620002648482850162000224565b91505092915050565b600067ffffffffffffffff82169050919050565b600080fd5b62000291816200026d565b81146200029d57600080fd5b50565b60805160601c611924620002c660003960008181610331015261038501526119246000f3fe6080604052600436106100865760003560e01c8063c0cfacc911610059578063c0cfacc914610122578063e0c862891461015f578063ea7c98c114610176578063eb68d9d11461019f578063edd3bdb6146101c857610086565b80631bb420c21461008b5780631fe543e3146100b45780632bef2b3c146100dd5780637cb3f9f214610106575b600080fd5b34801561009757600080fd5b506100b260048036038101906100ad9190611017565b6101f1565b005b3480156100c057600080fd5b506100db60048036038101906100d691906111c7565b61032f565b005b3480156100e957600080fd5b5061010460048036038101906100ff9190611158565b6103ef565b005b610120600480360381019061011b91906110fc565b6105c7565b005b34801561012e57600080fd5b5061014960048036038101906101449190610e59565b6106c7565b6040516101569190611466565b60405180910390f35b34801561016b57600080fd5b506101746106df565b005b34801561018257600080fd5b5061019d60048036038101906101989190610f8f565b6108a3565b005b3480156101ab57600080fd5b506101c660048036038101906101c19190610e86565b6108ff565b005b3480156101d457600080fd5b506101ef60048036038101906101ea9190610f1b565b61099f565b005b8151835114610235576040517f08c379a000000000000000000000000000000000000000000000000000000000815260040161022c90611426565b60405180910390fd5b600081905060005b84518110156102fc578173ffffffffffffffffffffffffffffffffffffffff166323b872dd3387848151811061027657610275611731565b5b602002602001015187858151811061029157610290611731565b5b60200260200101516040518463ffffffff1660e01b81526004016102b79392919061135c565b600060405180830381600087803b1580156102d157600080fd5b505af11580156102e5573d6000803e3d6000fd5b5050505080806102f490611659565b91505061023d565b507f406dade31f7ae4b5dbc276258c28dde5ae6d5c2773c5745802c493a2360e55e060405160405180910390a150505050565b7f000000000000000000000000000000000000000000000000000000000000000073ffffffffffffffffffffffffffffffffffffffff163373ffffffffffffffffffffffffffffffffffffffff16146103e157337f00000000000000000000000000000000000000000000000000000000000000006040517f1cf993f40000000000000000000000000000000000000000000000000000000081526004016103d8929190611333565b60405180910390fd5b6103eb82826109f9565b5050565b60008190508073ffffffffffffffffffffffffffffffffffffffff166370a08231336040518263ffffffff1660e01b815260040161042d9190611318565b60206040518083038186803b15801561044557600080fd5b505afa158015610459573d6000803e3d6000fd5b505050506040513d601f19601f8201168201806040525081019061047d91906110cf565b83518561048a9190611538565b11156104cb576040517f08c379a00000000000000000000000000000000000000000000000000000000081526004016104c2906113e6565b60405180910390fd5b60005b8351811015610594578173ffffffffffffffffffffffffffffffffffffffff166323b872dd3386848151811061050757610506611731565b5b6020026020010151886040518463ffffffff1660e01b815260040161052e9392919061135c565b602060405180830381600087803b15801561054857600080fd5b505af115801561055c573d6000803e3d6000fd5b505050506040513d601f19601f8201168201806040525081019061058091906110a2565b50808061058c90611659565b9150506104ce565b507f406dade31f7ae4b5dbc276258c28dde5ae6d5c2773c5745802c493a2360e55e060405160405180910390a150505050565b348151836105d59190611538565b1115610616576040517f08c379a000000000000000000000000000000000000000000000000000000000815260040161060d90611406565b60405180910390fd5b60005b81518110156106965781818151811061063557610634611731565b5b602002602001015173ffffffffffffffffffffffffffffffffffffffff166108fc849081150290604051600060405180830381858888f19350505050158015610682573d6000803e3d6000fd5b50808061068e90611659565b915050610619565b507f406dade31f7ae4b5dbc276258c28dde5ae6d5c2773c5745802c493a2360e55e060405160405180910390a15050565b60066020528060005260406000206000915090505481565b60008054906101000a900473ffffffffffffffffffffffffffffffffffffffff1673ffffffffffffffffffffffffffffffffffffffff16635d3b1d30600254600060149054906101000a900467ffffffffffffffff16600360049054906101000a900461ffff16600360009054906101000a900463ffffffff1660016040518663ffffffff1660e01b815260040161077b959493929190611393565b602060405180830381600087803b15801561079557600080fd5b505af11580156107a9573d6000803e3d6000fd5b505050506040513d601f19601f820116820180604052508101906107cd91906110cf565b600460003373ffffffffffffffffffffffffffffffffffffffff1673ffffffffffffffffffffffffffffffffffffffff168152602001908152602001600020819055503360056000600460003373ffffffffffffffffffffffffffffffffffffffff1673ffffffffffffffffffffffffffffffffffffffff16815260200190815260200160002054815260200190815260200160002060006101000a81548173ffffffffffffffffffffffffffffffffffffffff021916908373ffffffffffffffffffffffffffffffffffffffff160217905550565b6108f8826108f285888880806020026020016040519081016040528093929190818152602001838360200280828437600081840152601f19601f82011690508083019250505050505050610a8f565b836103ef565b5050505050565b61099861095084849050878780806020026020016040519081016040528093929190818152602001838360200280828437600081840152601f19601f82011690508083019250505050505050610a8f565b848480806020026020016040519081016040528093929190818152602001838360200280828437600081840152601f19601f82011690508083019250505050505050836101f1565b5050505050565b6109f3816109ee84878780806020026020016040519081016040528093929190818152602001838360200280828437600081840152601f19601f82011690508083019250505050505050610a8f565b6105c7565b50505050565b80600081518110610a0d57610a0c611731565b5b6020026020010151600660006005600086815260200190815260200160002060009054906101000a900473ffffffffffffffffffffffffffffffffffffffff1673ffffffffffffffffffffffffffffffffffffffff1673ffffffffffffffffffffffffffffffffffffffff168152602001908152602001600020819055505050565b60606000600660003373ffffffffffffffffffffffffffffffffffffffff1673ffffffffffffffffffffffffffffffffffffffff168152602001908152602001600020541415610b14576040517f08c379a0000000000000000000000000000000000000000000000000000000008152600401610b0b90611446565b60405180910390fd5b606060005b84811015610c1257838451600660003373ffffffffffffffffffffffffffffffffffffffff1673ffffffffffffffffffffffffffffffffffffffff1681526020019081526020016000205483604051602001610b76929190611481565b6040516020818303038152906040528051906020012060001c610b9991906116a2565b81518110610baa57610ba9611731565b5b6020026020010151828281518110610bc557610bc4611731565b5b602002602001019073ffffffffffffffffffffffffffffffffffffffff16908173ffffffffffffffffffffffffffffffffffffffff16815250508080610c0a90611659565b915050610b19565b508091505092915050565b6000610c30610c2b846114cf565b6114aa565b90508083825260208201905082856020860282011115610c5357610c52611799565b5b60005b85811015610c835781610c698882610cfd565b845260208401935060208301925050600181019050610c56565b5050509392505050565b6000610ca0610c9b846114fb565b6114aa565b90508083825260208201905082856020860282011115610cc357610cc2611799565b5b60005b85811015610cf35781610cd98882610e2f565b845260208401935060208301925050600181019050610cc6565b5050509392505050565b600081359050610d0c816118a9565b92915050565b60008083601f840112610d2857610d27611794565b5b8235905067ffffffffffffffff811115610d4557610d4461178f565b5b602083019150836020820283011115610d6157610d60611799565b5b9250929050565b600082601f830112610d7d57610d7c611794565b5b8135610d8d848260208601610c1d565b91505092915050565b60008083601f840112610dac57610dab611794565b5b8235905067ffffffffffffffff811115610dc957610dc861178f565b5b602083019150836020820283011115610de557610de4611799565b5b9250929050565b600082601f830112610e0157610e00611794565b5b8135610e11848260208601610c8d565b91505092915050565b600081519050610e29816118c0565b92915050565b600081359050610e3e816118d7565b92915050565b600081519050610e53816118d7565b92915050565b600060208284031215610e6f57610e6e6117a3565b5b6000610e7d84828501610cfd565b91505092915050565b600080600080600060608688031215610ea257610ea16117a3565b5b600086013567ffffffffffffffff811115610ec057610ebf61179e565b5b610ecc88828901610d12565b9550955050602086013567ffffffffffffffff811115610eef57610eee61179e565b5b610efb88828901610d96565b93509350506040610f0e88828901610cfd565b9150509295509295909350565b60008060008060608587031215610f3557610f346117a3565b5b600085013567ffffffffffffffff811115610f5357610f5261179e565b5b610f5f87828801610d12565b94509450506020610f7287828801610e2f565b9250506040610f8387828801610e2f565b91505092959194509250565b600080600080600060808688031215610fab57610faa6117a3565b5b600086013567ffffffffffffffff811115610fc957610fc861179e565b5b610fd588828901610d12565b95509550506020610fe888828901610e2f565b9350506040610ff988828901610e2f565b925050606061100a88828901610cfd565b9150509295509295909350565b6000806000606084860312156110305761102f6117a3565b5b600084013567ffffffffffffffff81111561104e5761104d61179e565b5b61105a86828701610d68565b935050602084013567ffffffffffffffff81111561107b5761107a61179e565b5b61108786828701610dec565b925050604061109886828701610cfd565b9150509250925092565b6000602082840312156110b8576110b76117a3565b5b60006110c684828501610e1a565b91505092915050565b6000602082840312156110e5576110e46117a3565b5b60006110f384828501610e44565b91505092915050565b60008060408385031215611113576111126117a3565b5b600061112185828601610e2f565b925050602083013567ffffffffffffffff8111156111425761114161179e565b5b61114e85828601610d68565b9150509250929050565b600080600060608486031215611171576111706117a3565b5b600061117f86828701610e2f565b935050602084013567ffffffffffffffff8111156111a05761119f61179e565b5b6111ac86828701610d68565b92505060406111bd86828701610cfd565b9150509250925092565b600080604083850312156111de576111dd6117a3565b5b60006111ec85828601610e2f565b925050602083013567ffffffffffffffff81111561120d5761120c61179e565b5b61121985828601610dec565b9150509250929050565b61122c81611592565b82525050565b61123b816115b0565b82525050565b61124a81611616565b82525050565b600061125d602083611527565b9150611268826117b9565b602082019050919050565b6000611280601583611527565b915061128b826117e2565b602082019050919050565b60006112a3602d83611527565b91506112ae8261180b565b604082019050919050565b60006112c6603b83611527565b91506112d18261185a565b604082019050919050565b6112e5816115ba565b82525050565b6112f4816115e8565b82525050565b611303816115f2565b82525050565b61131281611602565b82525050565b600060208201905061132d6000830184611223565b92915050565b60006040820190506113486000830185611223565b6113556020830184611223565b9392505050565b60006060820190506113716000830186611223565b61137e6020830185611223565b61138b60408301846112eb565b949350505050565b600060a0820190506113a86000830188611232565b6113b56020830187611309565b6113c260408301866112dc565b6113cf60608301856112fa565b6113dc6080830184611241565b9695505050505050565b600060208201905081810360008301526113ff81611250565b9050919050565b6000602082019050818103600083015261141f81611273565b9050919050565b6000602082019050818103600083015261143f81611296565b9050919050565b6000602082019050818103600083015261145f816112b9565b9050919050565b600060208201905061147b60008301846112eb565b92915050565b600060408201905061149660008301856112eb565b6114a360208301846112eb565b9392505050565b60006114b46114c5565b90506114c08282611628565b919050565b6000604051905090565b600067ffffffffffffffff8211156114ea576114e9611760565b5b602082029050602081019050919050565b600067ffffffffffffffff82111561151657611515611760565b5b602082029050602081019050919050565b600082825260208201905092915050565b6000611543826115e8565b915061154e836115e8565b9250817fffffffffffffffffffffffffffffffffffffffffffffffffffffffffffffffff0483118215151615611587576115866116d3565b5b828202905092915050565b600061159d826115c8565b9050919050565b60008115159050919050565b6000819050919050565b600061ffff82169050919050565b600073ffffffffffffffffffffffffffffffffffffffff82169050919050565b6000819050919050565b600063ffffffff82169050919050565b600067ffffffffffffffff82169050919050565b6000611621826115f2565b9050919050565b611631826117a8565b810181811067ffffffffffffffff821117156116505761164f611760565b5b80604052505050565b6000611664826115e8565b91507fffffffffffffffffffffffffffffffffffffffffffffffffffffffffffffffff821415611697576116966116d3565b5b600182019050919050565b60006116ad826115e8565b91506116b8836115e8565b9250826116c8576116c7611702565b5b828206905092915050565b7f4e487b7100000000000000000000000000000000000000000000000000000000600052601160045260246000fd5b7f4e487b7100000000000000000000000000000000000000000000000000000000600052601260045260246000fd5b7f4e487b7100000000000000000000000000000000000000000000000000000000600052603260045260246000fd5b7f4e487b7100000000000000000000000000000000000000000000000000000000600052604160045260246000fd5b600080fd5b600080fd5b600080fd5b600080fd5b600080fd5b6000601f19601f8301169050919050565b7f4e6f7420656e6f75676820746f6b656e7320696e20796f75722077616c6c6574600082015250565b7f4e6f7420656e6f75676820636f696e732073656e740000000000000000000000600082015250565b7f5f61646472657373657320616e64205f746f6b656e494473206c656e6774687360008201527f20646f206e6f74206d6174636800000000000000000000000000000000000000602082015250565b7f5265717565737420612072616e646f6d206e756d626572206669727374206f7260008201527f207761697420756e74696c6c206974277320636f6e6669726d65640000000000602082015250565b6118b281611592565b81146118bd57600080fd5b50565b6118c9816115a4565b81146118d457600080fd5b50565b6118e0816115e8565b81146118eb57600080fd5b5056fea2646970667358221220801f4873a3b5a02a644669f835d24c17893dbc83c33804574cb6cdb02f905f2464736f6c63430008070033",
  "immutableReferences": {
    "680": [
      {
        "length": 32,
        "start": 817
      },
      {
        "length": 32,
        "start": 901
      }
    ]
  },
  "source": "// SPDX-License-Identifier: MIT\r\n\r\npragma solidity ^0.8.7;\r\n\r\nimport \"./imported/IERC20.sol\";\r\nimport \"./imported/IERC721.sol\";\r\nimport \"./VRFv2Consumer.sol\";\r\n\r\ncontract PrizeDistributor is VRFv2Consumer {\r\n    event Transfer();\r\n\r\n    constructor(uint64 subscriptionId) VRFv2Consumer(subscriptionId) {}\r\n\r\n    function distributeToAddresses(\r\n        uint256 _eachWinnerPrize,\r\n        address[] memory _addresses\r\n    ) public payable {\r\n        require(\r\n            _eachWinnerPrize * _addresses.length <= msg.value,\r\n            \"Not enough coins sent\"\r\n        );\r\n        for (\r\n            uint256 currentAddress = 0;\r\n            currentAddress < _addresses.length;\r\n            currentAddress++\r\n        ) {\r\n            payable(_addresses[currentAddress]).transfer(_eachWinnerPrize);\r\n        }\r\n        emit Transfer();\r\n    }\r\n\r\n    function distributeERC20ToAddresses(\r\n        uint256 _eachWinnerPrize,\r\n        address[] memory _addresses,\r\n        address _ERC20Address\r\n    ) public {\r\n        IERC20 token = IERC20(_ERC20Address);\r\n        require(\r\n            _eachWinnerPrize * _addresses.length <= token.balanceOf(msg.sender),\r\n            \"Not enough tokens in your wallet\"\r\n        );\r\n        for (\r\n            uint256 currentAddress = 0;\r\n            currentAddress < _addresses.length;\r\n            currentAddress++\r\n        ) {\r\n            token.transferFrom(\r\n                msg.sender,\r\n                _addresses[currentAddress],\r\n                _eachWinnerPrize\r\n            );\r\n        }\r\n        emit Transfer();\r\n    }\r\n\r\n    function distributeERC721ToAddresses(\r\n        address[] memory _addresses,\r\n        uint256[] memory _tokenIDs,\r\n        address _ERC721Address\r\n    ) public {\r\n        require(\r\n            _addresses.length == _tokenIDs.length,\r\n            \"_addresses and _tokenIDs lengths do not match\"\r\n        );\r\n        IERC721 token = IERC721(_ERC721Address);\r\n        for (\r\n            uint256 currentAddress = 0;\r\n            currentAddress < _addresses.length;\r\n            currentAddress++\r\n        ) {\r\n            token.transferFrom(\r\n                msg.sender,\r\n                _addresses[currentAddress],\r\n                _tokenIDs[currentAddress]\r\n            );\r\n        }\r\n        emit Transfer();\r\n    }\r\n\r\n    /// @dev Chooses winners out of participants array. Must be called after random number confirmation. One address is able to win multiple times.\r\n    function getRandomWinners(\r\n        uint256 _winnersNum,\r\n        address[] memory _participants\r\n    ) private view returns (address[] memory) {\r\n        require(\r\n            randomWordByAddress[msg.sender] != 0,\r\n            \"Request a random number first or wait untill it's confirmed\"\r\n        );\r\n        address[] memory winners;\r\n        for (uint256 i = 0; i < _winnersNum; i++) {\r\n            winners[i] = _participants[\r\n                uint256(\r\n                    keccak256(abi.encode(randomWordByAddress[msg.sender], i))\r\n                ) % _participants.length\r\n            ];\r\n        }\r\n        return winners;\r\n    }\r\n\r\n    function distributeToRandomAddresses(\r\n        address[] calldata _participants,\r\n        uint256 _winnersNum,\r\n        uint256 _eachWinnerPrize\r\n    ) external {\r\n        distributeToAddresses(\r\n            _eachWinnerPrize,\r\n            getRandomWinners(_winnersNum, _participants)\r\n        );\r\n    }\r\n\r\n    function distributeERC721ToRandomAddresses(\r\n        address[] calldata _participants,\r\n        uint256[] calldata _tokenIDs,\r\n        address _ERC721Address\r\n    ) external {\r\n        distributeERC721ToAddresses(\r\n            getRandomWinners(_tokenIDs.length, _participants),\r\n            _tokenIDs,\r\n            _ERC721Address\r\n        );\r\n    }\r\n\r\n    function distributeERC20ToRandomAddresses(\r\n        address[] calldata _participants,\r\n        uint256 _winnersNum,\r\n        uint256 _eachWinnerPrize,\r\n        address _ERC20Address\r\n    ) external {\r\n        distributeERC20ToAddresses(\r\n            _eachWinnerPrize,\r\n            getRandomWinners(_winnersNum, _participants),\r\n            _ERC20Address\r\n        );\r\n    }\r\n}\r\n",
  "sourcePath": "C:\\Users\\badza\\Desktop\\Crypto\\Solidity\\ChainlinkHackathon2022\\prize-distributor\\contracts\\PrizeDistributor.sol",
  "compiler": {
    "name": "solc",
    "version": "0.8.7+commit.e28d00a7.Emscripten.clang"
  },
  "schemaVersion": "3.4.7",
  "updatedAt": "2022-05-08T09:05:23.968Z",
  "networkType": "ethereum",
  "devdoc": {
    "kind": "dev",
    "methods": {},
    "version": 1
  },
  "userdoc": {
    "kind": "user",
    "methods": {},
    "version": 1
  }
}