{
  "contractName": "PrizeDistributor",
  "abi": [
    {
      "inputs": [
        {
          "internalType": "uint64",
          "name": "subscriptionId",
          "type": "uint64"
        }
      ],
      "stateMutability": "nonpayable",
      "type": "constructor"
    },
    {
      "inputs": [
        {
          "internalType": "address",
          "name": "have",
          "type": "address"
        },
        {
          "internalType": "address",
          "name": "want",
          "type": "address"
        }
      ],
      "name": "OnlyCoordinatorCanFulfill",
      "type": "error"
    },
    {
      "anonymous": false,
      "inputs": [
        {
          "indexed": false,
          "internalType": "uint256",
          "name": "seed",
          "type": "uint256"
        },
        {
          "indexed": false,
          "internalType": "uint256",
          "name": "participantAmount",
          "type": "uint256"
        },
        {
          "indexed": false,
          "internalType": "enum PrizeDistributor.RaffleType",
          "name": "raffleType",
          "type": "uint8"
        }
      ],
      "name": "RaffleCompleted",
      "type": "event"
    },
    {
      "inputs": [
        {
          "internalType": "address",
          "name": "",
          "type": "address"
        }
      ],
      "name": "randomWordByAddress",
      "outputs": [
        {
          "internalType": "uint256",
          "name": "",
          "type": "uint256"
        }
      ],
      "stateMutability": "view",
      "type": "function",
      "constant": true
    },
    {
      "inputs": [
        {
          "internalType": "uint256",
          "name": "requestId",
          "type": "uint256"
        },
        {
          "internalType": "uint256[]",
          "name": "randomWords",
          "type": "uint256[]"
        }
      ],
      "name": "rawFulfillRandomWords",
      "outputs": [],
      "stateMutability": "nonpayable",
      "type": "function"
    },
    {
      "inputs": [],
      "name": "requestRandomWords",
      "outputs": [],
      "stateMutability": "nonpayable",
      "type": "function"
    },
    {
      "inputs": [
        {
          "internalType": "uint256",
          "name": "_eachWinnerPrize",
          "type": "uint256"
        },
        {
          "internalType": "address[]",
          "name": "_addresses",
          "type": "address[]"
        }
      ],
      "name": "distributeToAddresses",
      "outputs": [],
      "stateMutability": "payable",
      "type": "function",
      "payable": true
    },
    {
      "inputs": [
        {
          "internalType": "uint256",
          "name": "_eachWinnerPrize",
          "type": "uint256"
        },
        {
          "internalType": "address[]",
          "name": "_addresses",
          "type": "address[]"
        },
        {
          "internalType": "address",
          "name": "_ERC20Address",
          "type": "address"
        }
      ],
      "name": "distributeERC20ToAddresses",
      "outputs": [],
      "stateMutability": "nonpayable",
      "type": "function"
    },
    {
      "inputs": [
        {
          "internalType": "address[]",
          "name": "_addresses",
          "type": "address[]"
        },
        {
          "internalType": "uint256[]",
          "name": "_tokenIDs",
          "type": "uint256[]"
        },
        {
          "internalType": "address",
          "name": "_ERC721Address",
          "type": "address"
        }
      ],
      "name": "distributeERC721ToAddresses",
      "outputs": [],
      "stateMutability": "nonpayable",
      "type": "function"
    },
    {
      "inputs": [
        {
          "internalType": "address[]",
          "name": "_participants",
          "type": "address[]"
        },
        {
          "internalType": "uint256",
          "name": "_winnersNum",
          "type": "uint256"
        },
        {
          "internalType": "uint256",
          "name": "_eachWinnerPrize",
          "type": "uint256"
        }
      ],
      "name": "distributeToRandomAddresses",
      "outputs": [],
      "stateMutability": "payable",
      "type": "function",
      "payable": true
    },
    {
      "inputs": [
        {
          "internalType": "address[]",
          "name": "_participants",
          "type": "address[]"
        },
        {
          "internalType": "uint256[]",
          "name": "_tokenIDs",
          "type": "uint256[]"
        },
        {
          "internalType": "address",
          "name": "_ERC721Address",
          "type": "address"
        }
      ],
      "name": "distributeERC721ToRandomAddresses",
      "outputs": [],
      "stateMutability": "nonpayable",
      "type": "function"
    },
    {
      "inputs": [
        {
          "internalType": "address[]",
          "name": "_participants",
          "type": "address[]"
        },
        {
          "internalType": "uint256",
          "name": "_winnersNum",
          "type": "uint256"
        },
        {
          "internalType": "uint256",
          "name": "_eachWinnerPrize",
          "type": "uint256"
        },
        {
          "internalType": "address",
          "name": "_ERC20Address",
          "type": "address"
        }
      ],
      "name": "distributeERC20ToRandomAddresses",
      "outputs": [],
      "stateMutability": "nonpayable",
      "type": "function"
    },
    {
      "inputs": [],
      "name": "withdrawETH",
      "outputs": [],
      "stateMutability": "nonpayable",
      "type": "function"
    }
  ],
  "bytecode": "0x60a0604052736168499c0cffcacd319c818142124b7a15e857ab600160006101000a81548173ffffffffffffffffffffffffffffffffffffffff021916908373ffffffffffffffffffffffffffffffffffffffff1602179055507fd89b2bf150e3b9e13446986e571fb9cab24b13cea0a43ea20a6049a85cc807cc60001b600255620186a0600360006101000a81548163ffffffff021916908363ffffffff16021790555060038060046101000a81548161ffff021916908361ffff160217905550348015620000ce57600080fd5b5060405162001f2638038062001f268339818101604052810190620000f491906200023b565b80600160009054906101000a900473ffffffffffffffffffffffffffffffffffffffff168073ffffffffffffffffffffffffffffffffffffffff1660808173ffffffffffffffffffffffffffffffffffffffff1660601b8152505050600160009054906101000a900473ffffffffffffffffffffffffffffffffffffffff166000806101000a81548173ffffffffffffffffffffffffffffffffffffffff021916908373ffffffffffffffffffffffffffffffffffffffff16021790555033600360066101000a81548173ffffffffffffffffffffffffffffffffffffffff021916908373ffffffffffffffffffffffffffffffffffffffff16021790555080600060146101000a81548167ffffffffffffffff021916908367ffffffffffffffff1602179055505050620002a0565b600081519050620002358162000286565b92915050565b60006020828403121562000254576200025362000281565b5b6000620002648482850162000224565b91505092915050565b600067ffffffffffffffff82169050919050565b600080fd5b62000291816200026d565b81146200029d57600080fd5b50565b60805160601c611c60620002c66000396000818161031a015261036e0152611c606000f3fe6080604052600436106100915760003560e01c8063e086e5ec11610059578063e086e5ec1461016a578063e0c8628914610181578063ea7c98c114610198578063eb68d9d1146101c1578063edd3bdb6146101ea57610091565b80631bb420c2146100965780631fe543e3146100bf5780632bef2b3c146100e85780637cb3f9f214610111578063c0cfacc91461012d575b600080fd5b3480156100a257600080fd5b506100bd60048036038101906100b8919061124f565b610206565b005b3480156100cb57600080fd5b506100e660048036038101906100e191906113ff565b610318565b005b3480156100f457600080fd5b5061010f600480360381019061010a9190611390565b6103d8565b005b61012b60048036038101906101269190611334565b610584565b005b34801561013957600080fd5b50610154600480360381019061014f9190611091565b610667565b60405161016191906116ad565b60405180910390f35b34801561017657600080fd5b5061017f61067f565b005b34801561018d57600080fd5b50610196610752565b005b3480156101a457600080fd5b506101bf60048036038101906101ba91906111c7565b610916565b005b3480156101cd57600080fd5b506101e860048036038101906101e391906110be565b6109f0565b005b61020460048036038101906101ff9190611153565b610b0e565b005b815183511461024a576040517f08c379a00000000000000000000000000000000000000000000000000000000081526004016102419061166d565b60405180910390fd5b600081905060005b8451811015610311578173ffffffffffffffffffffffffffffffffffffffff166323b872dd3387848151811061028b5761028a611a59565b5b60200260200101518785815181106102a6576102a5611a59565b5b60200260200101516040518463ffffffff1660e01b81526004016102cc939291906115a3565b600060405180830381600087803b1580156102e657600080fd5b505af11580156102fa573d6000803e3d6000fd5b50505050808061030990611952565b915050610252565b5050505050565b7f000000000000000000000000000000000000000000000000000000000000000073ffffffffffffffffffffffffffffffffffffffff163373ffffffffffffffffffffffffffffffffffffffff16146103ca57337f00000000000000000000000000000000000000000000000000000000000000006040517f1cf993f40000000000000000000000000000000000000000000000000000000081526004016103c192919061157a565b60405180910390fd5b6103d48282610be6565b5050565b60008190508073ffffffffffffffffffffffffffffffffffffffff166370a08231336040518263ffffffff1660e01b8152600401610416919061155f565b60206040518083038186803b15801561042e57600080fd5b505afa158015610442573d6000803e3d6000fd5b505050506040513d601f19601f820116820180604052508101906104669190611307565b835185610473919061180c565b11156104b4576040517f08c379a00000000000000000000000000000000000000000000000000000000081526004016104ab9061162d565b60405180910390fd5b60005b835181101561057d578173ffffffffffffffffffffffffffffffffffffffff166323b872dd338684815181106104f0576104ef611a59565b5b6020026020010151886040518463ffffffff1660e01b8152600401610517939291906115a3565b602060405180830381600087803b15801561053157600080fd5b505af1158015610545573d6000803e3d6000fd5b505050506040513d601f19601f8201168201806040525081019061056991906112da565b50808061057590611952565b9150506104b7565b5050505050565b34815183610592919061180c565b11156105d3576040517f08c379a00000000000000000000000000000000000000000000000000000000081526004016105ca9061164d565b60405180910390fd5b60005b81518110156106625782600760008484815181106105f7576105f6611a59565b5b602002602001015173ffffffffffffffffffffffffffffffffffffffff1673ffffffffffffffffffffffffffffffffffffffff168152602001908152602001600020600082825461064891906117b6565b92505081905550808061065a90611952565b9150506105d6565b505050565b60066020528060005260406000206000915090505481565b6000600760003373ffffffffffffffffffffffffffffffffffffffff1673ffffffffffffffffffffffffffffffffffffffff1681526020019081526020016000205490506000600760003373ffffffffffffffffffffffffffffffffffffffff1673ffffffffffffffffffffffffffffffffffffffff168152602001908152602001600020819055503373ffffffffffffffffffffffffffffffffffffffff166108fc829081150290604051600060405180830381858888f1935050505015801561074e573d6000803e3d6000fd5b5050565b60008054906101000a900473ffffffffffffffffffffffffffffffffffffffff1673ffffffffffffffffffffffffffffffffffffffff16635d3b1d30600254600060149054906101000a900467ffffffffffffffff16600360049054906101000a900461ffff16600360009054906101000a900463ffffffff1660016040518663ffffffff1660e01b81526004016107ee9594939291906115da565b602060405180830381600087803b15801561080857600080fd5b505af115801561081c573d6000803e3d6000fd5b505050506040513d601f19601f820116820180604052508101906108409190611307565b600460003373ffffffffffffffffffffffffffffffffffffffff1673ffffffffffffffffffffffffffffffffffffffff168152602001908152602001600020819055503360056000600460003373ffffffffffffffffffffffffffffffffffffffff1673ffffffffffffffffffffffffffffffffffffffff16815260200190815260200160002054815260200190815260200160002060006101000a81548173ffffffffffffffffffffffffffffffffffffffff021916908373ffffffffffffffffffffffffffffffffffffffff160217905550565b61096b8261096585888880806020026020016040519081016040528093929190818152602001838360200280828437600081840152601f19601f82011690508083019250505050505050610c7c565b836103d8565b7f849b966fdd96a1e2dfa23822512b1d8c4eaeb7d418c83b02f5712d17957a742c600660003373ffffffffffffffffffffffffffffffffffffffff1673ffffffffffffffffffffffffffffffffffffffff168152602001908152602001600020548686905060016040516109e1939291906116f1565b60405180910390a15050505050565b610a89610a4184849050878780806020026020016040519081016040528093929190818152602001838360200280828437600081840152601f19601f82011690508083019250505050505050610c7c565b848480806020026020016040519081016040528093929190818152602001838360200280828437600081840152601f19601f8201169050808301925050505050505083610206565b7f849b966fdd96a1e2dfa23822512b1d8c4eaeb7d418c83b02f5712d17957a742c600660003373ffffffffffffffffffffffffffffffffffffffff1673ffffffffffffffffffffffffffffffffffffffff16815260200190815260200160002054868690506002604051610aff939291906116f1565b60405180910390a15050505050565b610b6281610b5d84878780806020026020016040519081016040528093929190818152602001838360200280828437600081840152601f19601f82011690508083019250505050505050610c7c565b610584565b7f849b966fdd96a1e2dfa23822512b1d8c4eaeb7d418c83b02f5712d17957a742c600660003373ffffffffffffffffffffffffffffffffffffffff1673ffffffffffffffffffffffffffffffffffffffff16815260200190815260200160002054858590506000604051610bd8939291906116f1565b60405180910390a150505050565b80600081518110610bfa57610bf9611a59565b5b6020026020010151600660006005600086815260200190815260200160002060009054906101000a900473ffffffffffffffffffffffffffffffffffffffff1673ffffffffffffffffffffffffffffffffffffffff1673ffffffffffffffffffffffffffffffffffffffff168152602001908152602001600020819055505050565b60606000600660003373ffffffffffffffffffffffffffffffffffffffff1673ffffffffffffffffffffffffffffffffffffffff168152602001908152602001600020541415610d01576040517f08c379a0000000000000000000000000000000000000000000000000000000008152600401610cf89061168d565b60405180910390fd5b60008367ffffffffffffffff811115610d1d57610d1c611a88565b5b604051908082528060200260200182016040528015610d4b5781602001602082028036833780820191505090505b50905060005b84811015610e4a57838451600660003373ffffffffffffffffffffffffffffffffffffffff1673ffffffffffffffffffffffffffffffffffffffff1681526020019081526020016000205483604051602001610dae9291906116c8565b6040516020818303038152906040528051906020012060001c610dd1919061199b565b81518110610de257610de1611a59565b5b6020026020010151828281518110610dfd57610dfc611a59565b5b602002602001019073ffffffffffffffffffffffffffffffffffffffff16908173ffffffffffffffffffffffffffffffffffffffff16815250508080610e4290611952565b915050610d51565b508091505092915050565b6000610e68610e638461174d565b611728565b90508083825260208201905082856020860282011115610e8b57610e8a611ac1565b5b60005b85811015610ebb5781610ea18882610f35565b845260208401935060208301925050600181019050610e8e565b5050509392505050565b6000610ed8610ed384611779565b611728565b90508083825260208201905082856020860282011115610efb57610efa611ac1565b5b60005b85811015610f2b5781610f118882611067565b845260208401935060208301925050600181019050610efe565b5050509392505050565b600081359050610f4481611be5565b92915050565b60008083601f840112610f6057610f5f611abc565b5b8235905067ffffffffffffffff811115610f7d57610f7c611ab7565b5b602083019150836020820283011115610f9957610f98611ac1565b5b9250929050565b600082601f830112610fb557610fb4611abc565b5b8135610fc5848260208601610e55565b91505092915050565b60008083601f840112610fe457610fe3611abc565b5b8235905067ffffffffffffffff81111561100157611000611ab7565b5b60208301915083602082028301111561101d5761101c611ac1565b5b9250929050565b600082601f83011261103957611038611abc565b5b8135611049848260208601610ec5565b91505092915050565b60008151905061106181611bfc565b92915050565b60008135905061107681611c13565b92915050565b60008151905061108b81611c13565b92915050565b6000602082840312156110a7576110a6611acb565b5b60006110b584828501610f35565b91505092915050565b6000806000806000606086880312156110da576110d9611acb565b5b600086013567ffffffffffffffff8111156110f8576110f7611ac6565b5b61110488828901610f4a565b9550955050602086013567ffffffffffffffff81111561112757611126611ac6565b5b61113388828901610fce565b9350935050604061114688828901610f35565b9150509295509295909350565b6000806000806060858703121561116d5761116c611acb565b5b600085013567ffffffffffffffff81111561118b5761118a611ac6565b5b61119787828801610f4a565b945094505060206111aa87828801611067565b92505060406111bb87828801611067565b91505092959194509250565b6000806000806000608086880312156111e3576111e2611acb565b5b600086013567ffffffffffffffff81111561120157611200611ac6565b5b61120d88828901610f4a565b9550955050602061122088828901611067565b935050604061123188828901611067565b925050606061124288828901610f35565b9150509295509295909350565b60008060006060848603121561126857611267611acb565b5b600084013567ffffffffffffffff81111561128657611285611ac6565b5b61129286828701610fa0565b935050602084013567ffffffffffffffff8111156112b3576112b2611ac6565b5b6112bf86828701611024565b92505060406112d086828701610f35565b9150509250925092565b6000602082840312156112f0576112ef611acb565b5b60006112fe84828501611052565b91505092915050565b60006020828403121561131d5761131c611acb565b5b600061132b8482850161107c565b91505092915050565b6000806040838503121561134b5761134a611acb565b5b600061135985828601611067565b925050602083013567ffffffffffffffff81111561137a57611379611ac6565b5b61138685828601610fa0565b9150509250929050565b6000806000606084860312156113a9576113a8611acb565b5b60006113b786828701611067565b935050602084013567ffffffffffffffff8111156113d8576113d7611ac6565b5b6113e486828701610fa0565b92505060406113f586828701610f35565b9150509250925092565b6000806040838503121561141657611415611acb565b5b600061142485828601611067565b925050602083013567ffffffffffffffff81111561144557611444611ac6565b5b61145185828601611024565b9150509250929050565b61146481611866565b82525050565b61147381611884565b82525050565b611482816118fd565b82525050565b6114918161190f565b82525050565b60006114a46020836117a5565b91506114af82611ae1565b602082019050919050565b60006114c76015836117a5565b91506114d282611b0a565b602082019050919050565b60006114ea602d836117a5565b91506114f582611b33565b604082019050919050565b600061150d603b836117a5565b915061151882611b82565b604082019050919050565b61152c816118a1565b82525050565b61153b816118cf565b82525050565b61154a816118d9565b82525050565b611559816118e9565b82525050565b6000602082019050611574600083018461145b565b92915050565b600060408201905061158f600083018561145b565b61159c602083018461145b565b9392505050565b60006060820190506115b8600083018661145b565b6115c5602083018561145b565b6115d26040830184611532565b949350505050565b600060a0820190506115ef600083018861146a565b6115fc6020830187611550565b6116096040830186611523565b6116166060830185611541565b6116236080830184611488565b9695505050505050565b6000602082019050818103600083015261164681611497565b9050919050565b60006020820190508181036000830152611666816114ba565b9050919050565b60006020820190508181036000830152611686816114dd565b9050919050565b600060208201905081810360008301526116a681611500565b9050919050565b60006020820190506116c26000830184611532565b92915050565b60006040820190506116dd6000830185611532565b6116ea6020830184611532565b9392505050565b60006060820190506117066000830186611532565b6117136020830185611532565b6117206040830184611479565b949350505050565b6000611732611743565b905061173e8282611921565b919050565b6000604051905090565b600067ffffffffffffffff82111561176857611767611a88565b5b602082029050602081019050919050565b600067ffffffffffffffff82111561179457611793611a88565b5b602082029050602081019050919050565b600082825260208201905092915050565b60006117c1826118cf565b91506117cc836118cf565b9250827fffffffffffffffffffffffffffffffffffffffffffffffffffffffffffffffff03821115611801576118006119cc565b5b828201905092915050565b6000611817826118cf565b9150611822836118cf565b9250817fffffffffffffffffffffffffffffffffffffffffffffffffffffffffffffffff048311821515161561185b5761185a6119cc565b5b828202905092915050565b6000611871826118af565b9050919050565b60008115159050919050565b6000819050919050565b600081905061189c82611bd1565b919050565b600061ffff82169050919050565b600073ffffffffffffffffffffffffffffffffffffffff82169050919050565b6000819050919050565b600063ffffffff82169050919050565b600067ffffffffffffffff82169050919050565b60006119088261188e565b9050919050565b600061191a826118d9565b9050919050565b61192a82611ad0565b810181811067ffffffffffffffff8211171561194957611948611a88565b5b80604052505050565b600061195d826118cf565b91507fffffffffffffffffffffffffffffffffffffffffffffffffffffffffffffffff8214156119905761198f6119cc565b5b600182019050919050565b60006119a6826118cf565b91506119b1836118cf565b9250826119c1576119c06119fb565b5b828206905092915050565b7f4e487b7100000000000000000000000000000000000000000000000000000000600052601160045260246000fd5b7f4e487b7100000000000000000000000000000000000000000000000000000000600052601260045260246000fd5b7f4e487b7100000000000000000000000000000000000000000000000000000000600052602160045260246000fd5b7f4e487b7100000000000000000000000000000000000000000000000000000000600052603260045260246000fd5b7f4e487b7100000000000000000000000000000000000000000000000000000000600052604160045260246000fd5b600080fd5b600080fd5b600080fd5b600080fd5b600080fd5b6000601f19601f8301169050919050565b7f4e6f7420656e6f75676820746f6b656e7320696e20796f75722077616c6c6574600082015250565b7f4e6f7420656e6f75676820636f696e732073656e740000000000000000000000600082015250565b7f5f61646472657373657320616e64205f746f6b656e494473206c656e6774687360008201527f20646f206e6f74206d6174636800000000000000000000000000000000000000602082015250565b7f5265717565737420612072616e646f6d206e756d626572206669727374206f7260008201527f207761697420756e74696c6c206974277320636f6e6669726d65640000000000602082015250565b60038110611be257611be1611a2a565b5b50565b611bee81611866565b8114611bf957600080fd5b50565b611c0581611878565b8114611c1057600080fd5b50565b611c1c816118cf565b8114611c2757600080fd5b5056fea2646970667358221220bf0e358bc1c2cc0197730494bcb2ee4260e330c893122b4dc61ef9adb8974e3364736f6c63430008070033",
  "immutableReferences": {
    "759": [
      {
        "length": 32,
        "start": 794
      },
      {
        "length": 32,
        "start": 878
      }
    ]
  },
  "source": "// SPDX-License-Identifier: MIT\r\n\r\npragma solidity ^0.8.7;\r\n\r\nimport \"./imported/IERC20.sol\";\r\nimport \"./imported/IERC721.sol\";\r\nimport \"./VRFv2Consumer.sol\";\r\n\r\n/// @title PrizeDistributor\r\n/// @author OmiAkk\r\n/// @notice ETH is not automatically sent to winners' addresses to prevent Denial of Service\r\ncontract PrizeDistributor is VRFv2Consumer {\r\n    enum RaffleType {\r\n        ETH,\r\n        ERC20,\r\n        ERC721\r\n    }\r\n\r\n    /// @dev Amount of ether available for withdrawal by an address\r\n    mapping(address => uint256) private ethBalance;\r\n\r\n    event RaffleCompleted(\r\n        uint256 seed,\r\n        uint256 participantAmount,\r\n        RaffleType raffleType\r\n    );\r\n\r\n    constructor(uint64 subscriptionId) VRFv2Consumer(subscriptionId) {}\r\n\r\n    /// @dev Adds a prize to each address ethBalance\r\n    /// @param _eachWinnerPrize ETH prize for each of the addresses\r\n    function distributeToAddresses(\r\n        uint256 _eachWinnerPrize,\r\n        address[] memory _addresses\r\n    ) public payable {\r\n        require(\r\n            _eachWinnerPrize * _addresses.length <= msg.value,\r\n            \"Not enough coins sent\"\r\n        );\r\n        for (\r\n            uint256 currentAddress = 0;\r\n            currentAddress < _addresses.length;\r\n            currentAddress++\r\n        ) {\r\n            ethBalance[_addresses[currentAddress]] += _eachWinnerPrize;\r\n        }\r\n    }\r\n\r\n    /// @dev Sends ERC20 tokens to addresses\r\n    /// @param _ERC20Address Address of ERC20 token to send\r\n    /// @param _eachWinnerPrize ERC20 amount to send to each address\r\n    function distributeERC20ToAddresses(\r\n        uint256 _eachWinnerPrize,\r\n        address[] memory _addresses,\r\n        address _ERC20Address\r\n    ) public {\r\n        IERC20 token = IERC20(_ERC20Address);\r\n        require(\r\n            _eachWinnerPrize * _addresses.length <= token.balanceOf(msg.sender),\r\n            \"Not enough tokens in your wallet\"\r\n        );\r\n        for (\r\n            uint256 currentAddress = 0;\r\n            currentAddress < _addresses.length;\r\n            currentAddress++\r\n        ) {\r\n            token.transferFrom(\r\n                msg.sender,\r\n                _addresses[currentAddress],\r\n                _eachWinnerPrize\r\n            );\r\n        }\r\n    }\r\n\r\n    /// @dev Sends ERC721 tokens to addresses\r\n    /// @param _ERC721Address Address of ERC721 token to send\r\n    /// @param _tokenIDs IDs of ERC721 tokens to send to each address\r\n    function distributeERC721ToAddresses(\r\n        address[] memory _addresses,\r\n        uint256[] memory _tokenIDs,\r\n        address _ERC721Address\r\n    ) public {\r\n        require(\r\n            _addresses.length == _tokenIDs.length,\r\n            \"_addresses and _tokenIDs lengths do not match\"\r\n        );\r\n        IERC721 token = IERC721(_ERC721Address);\r\n        for (\r\n            uint256 currentAddress = 0;\r\n            currentAddress < _addresses.length;\r\n            currentAddress++\r\n        ) {\r\n            token.transferFrom(\r\n                msg.sender,\r\n                _addresses[currentAddress],\r\n                _tokenIDs[currentAddress]\r\n            );\r\n        }\r\n    }\r\n\r\n    /// @dev Chooses winners out of participants array\r\n    /// @notice Must be called after random number confirmation\r\n    /// @notice One address is able to win multiple times\r\n    function getRandomWinners(\r\n        uint256 _winnersNum,\r\n        address[] memory _participants\r\n    ) private view returns (address[] memory) {\r\n        require(\r\n            randomWordByAddress[msg.sender] != 0,\r\n            \"Request a random number first or wait untill it's confirmed\"\r\n        );\r\n        address[] memory winners = new address[](_winnersNum);\r\n        for (uint256 i = 0; i < _winnersNum; i++) {\r\n            winners[i] = _participants[\r\n                uint256(\r\n                    keccak256(abi.encode(randomWordByAddress[msg.sender], i))\r\n                ) % _participants.length\r\n            ];\r\n        }\r\n        return winners;\r\n    }\r\n\r\n    /// @dev Distributes ETH to random addresses from participants\r\n    /// @notice An address should request randomWords (seed) before distributing to random addresses\r\n    /// @notice One address is able to win multiple times\r\n    function distributeToRandomAddresses(\r\n        address[] calldata _participants,\r\n        uint256 _winnersNum,\r\n        uint256 _eachWinnerPrize\r\n    ) external payable {\r\n        distributeToAddresses(\r\n            _eachWinnerPrize,\r\n            getRandomWinners(_winnersNum, _participants)\r\n        );\r\n\r\n        emit RaffleCompleted(\r\n            randomWordByAddress[msg.sender],\r\n            _participants.length,\r\n            RaffleType.ETH\r\n        );\r\n    }\r\n\r\n    /// @dev Distributes ERC721 tokens to random addresses from participants\r\n    /// @notice An address should request randomWords (seed) before distributing to random addresses\r\n    /// @notice One address is able to win multiple times\r\n    function distributeERC721ToRandomAddresses(\r\n        address[] calldata _participants,\r\n        uint256[] calldata _tokenIDs,\r\n        address _ERC721Address\r\n    ) external {\r\n        distributeERC721ToAddresses(\r\n            getRandomWinners(_tokenIDs.length, _participants),\r\n            _tokenIDs,\r\n            _ERC721Address\r\n        );\r\n\r\n        emit RaffleCompleted(\r\n            randomWordByAddress[msg.sender],\r\n            _participants.length,\r\n            RaffleType.ERC721\r\n        );\r\n    }\r\n\r\n    /// @dev Distributes ERC20 tokens to random addresses from participants\r\n    /// @notice An address should request randomWords (seed) before distributing to random addresses\r\n    /// @notice One address is able to win multiple times\r\n    function distributeERC20ToRandomAddresses(\r\n        address[] calldata _participants,\r\n        uint256 _winnersNum,\r\n        uint256 _eachWinnerPrize,\r\n        address _ERC20Address\r\n    ) external {\r\n        distributeERC20ToAddresses(\r\n            _eachWinnerPrize,\r\n            getRandomWinners(_winnersNum, _participants),\r\n            _ERC20Address\r\n        );\r\n\r\n        emit RaffleCompleted(\r\n            randomWordByAddress[msg.sender],\r\n            _participants.length,\r\n            RaffleType.ERC20\r\n        );\r\n    }\r\n\r\n    /// @dev Sends all ether availible to withdraw by the caller to him\r\n    function withdrawETH() external {\r\n        uint256 amount = ethBalance[msg.sender];\r\n        ethBalance[msg.sender] = 0;\r\n        payable(msg.sender).transfer(amount);\r\n    }\r\n}\r\n",
  "sourcePath": "C:\\Users\\badza\\Desktop\\Crypto\\Solidity\\ChainlinkHackathon2022\\prize-distributor\\contracts\\PrizeDistributor.sol",
  "compiler": {
    "name": "solc",
    "version": "0.8.7+commit.e28d00a7.Emscripten.clang"
  },
  "schemaVersion": "3.4.7",
  "updatedAt": "2023-01-14T12:30:49.637Z",
  "networkType": "ethereum",
  "devdoc": {
    "author": "OmiAkk",
    "kind": "dev",
    "methods": {
      "distributeERC20ToAddresses(uint256,address[],address)": {
        "details": "Sends ERC20 tokens to addresses",
        "params": {
          "_ERC20Address": "Address of ERC20 token to send",
          "_eachWinnerPrize": "ERC20 amount to send to each address"
        }
      },
      "distributeERC20ToRandomAddresses(address[],uint256,uint256,address)": {
        "details": "Distributes ERC20 tokens to random addresses from participants"
      },
      "distributeERC721ToAddresses(address[],uint256[],address)": {
        "details": "Sends ERC721 tokens to addresses",
        "params": {
          "_ERC721Address": "Address of ERC721 token to send",
          "_tokenIDs": "IDs of ERC721 tokens to send to each address"
        }
      },
      "distributeERC721ToRandomAddresses(address[],uint256[],address)": {
        "details": "Distributes ERC721 tokens to random addresses from participants"
      },
      "distributeToAddresses(uint256,address[])": {
        "details": "Adds a prize to each address ethBalance",
        "params": {
          "_eachWinnerPrize": "ETH prize for each of the addresses"
        }
      },
      "distributeToRandomAddresses(address[],uint256,uint256)": {
        "details": "Distributes ETH to random addresses from participants"
      },
      "withdrawETH()": {
        "details": "Sends all ether availible to withdraw by the caller to him"
      }
    },
    "stateVariables": {
      "ethBalance": {
        "details": "Amount of ether available for withdrawal by an address"
      }
    },
    "title": "PrizeDistributor",
    "version": 1
  },
  "userdoc": {
    "kind": "user",
    "methods": {
      "distributeERC20ToRandomAddresses(address[],uint256,uint256,address)": {
        "notice": "An address should request randomWords (seed) before distributing to random addressesOne address is able to win multiple times"
      },
      "distributeERC721ToRandomAddresses(address[],uint256[],address)": {
        "notice": "An address should request randomWords (seed) before distributing to random addressesOne address is able to win multiple times"
      },
      "distributeToRandomAddresses(address[],uint256,uint256)": {
        "notice": "An address should request randomWords (seed) before distributing to random addressesOne address is able to win multiple times"
      }
    },
    "notice": "ETH is not automatically sent to winners' addresses to prevent Denial of Service",
    "version": 1
  }
}