{
  "contractName": "VRFv2Consumer",
  "abi": [
    {
      "inputs": [
        {
          "internalType": "uint64",
          "name": "subscriptionId",
          "type": "uint64"
        }
      ],
      "stateMutability": "nonpayable",
      "type": "constructor"
    },
    {
      "inputs": [
        {
          "internalType": "address",
          "name": "have",
          "type": "address"
        },
        {
          "internalType": "address",
          "name": "want",
          "type": "address"
        }
      ],
      "name": "OnlyCoordinatorCanFulfill",
      "type": "error"
    },
    {
      "inputs": [
        {
          "internalType": "address",
          "name": "",
          "type": "address"
        }
      ],
      "name": "randomWordByAddress",
      "outputs": [
        {
          "internalType": "uint256",
          "name": "",
          "type": "uint256"
        }
      ],
      "stateMutability": "view",
      "type": "function"
    },
    {
      "inputs": [
        {
          "internalType": "uint256",
          "name": "requestId",
          "type": "uint256"
        },
        {
          "internalType": "uint256[]",
          "name": "randomWords",
          "type": "uint256[]"
        }
      ],
      "name": "rawFulfillRandomWords",
      "outputs": [],
      "stateMutability": "nonpayable",
      "type": "function"
    },
    {
      "inputs": [],
      "name": "requestRandomWords",
      "outputs": [],
      "stateMutability": "nonpayable",
      "type": "function"
    }
  ],
  "bytecode": "0x60a0604052736168499c0cffcacd319c818142124b7a15e857ab600160006101000a81548173ffffffffffffffffffffffffffffffffffffffff021916908373ffffffffffffffffffffffffffffffffffffffff1602179055507fd89b2bf150e3b9e13446986e571fb9cab24b13cea0a43ea20a6049a85cc807cc60001b600255620186a0600360006101000a81548163ffffffff021916908363ffffffff16021790555060038060046101000a81548161ffff021916908361ffff1602179055503480156100cd57600080fd5b50604051610b05380380610b0583398181016040528101906100ef9190610231565b600160009054906101000a900473ffffffffffffffffffffffffffffffffffffffff168073ffffffffffffffffffffffffffffffffffffffff1660808173ffffffffffffffffffffffffffffffffffffffff1660601b8152505050600160009054906101000a900473ffffffffffffffffffffffffffffffffffffffff166000806101000a81548173ffffffffffffffffffffffffffffffffffffffff021916908373ffffffffffffffffffffffffffffffffffffffff16021790555033600360066101000a81548173ffffffffffffffffffffffffffffffffffffffff021916908373ffffffffffffffffffffffffffffffffffffffff16021790555080600060146101000a81548167ffffffffffffffff021916908367ffffffffffffffff1602179055505061028e565b60008151905061022b81610277565b92915050565b60006020828403121561024757610246610272565b5b60006102558482850161021c565b91505092915050565b600067ffffffffffffffff82169050919050565b600080fd5b6102808161025e565b811461028b57600080fd5b50565b60805160601c6108546102b160003960008181609e015260f201526108546000f3fe608060405234801561001057600080fd5b50600436106100415760003560e01c80631fe543e314610046578063c0cfacc914610062578063e0c8628914610092575b600080fd5b610060600480360381019061005b9190610505565b61009c565b005b61007c600480360381019061007791906104ab565b61015c565b6040516100899190610646565b60405180910390f35b61009a610174565b005b7f000000000000000000000000000000000000000000000000000000000000000073ffffffffffffffffffffffffffffffffffffffff163373ffffffffffffffffffffffffffffffffffffffff161461014e57337f00000000000000000000000000000000000000000000000000000000000000006040517f1cf993f40000000000000000000000000000000000000000000000000000000081526004016101459291906105ca565b60405180910390fd5b6101588282610338565b5050565b60066020528060005260406000206000915090505481565b60008054906101000a900473ffffffffffffffffffffffffffffffffffffffff1673ffffffffffffffffffffffffffffffffffffffff16635d3b1d30600254600060149054906101000a900467ffffffffffffffff16600360049054906101000a900461ffff16600360009054906101000a900463ffffffff1660016040518663ffffffff1660e01b81526004016102109594939291906105f3565b602060405180830381600087803b15801561022a57600080fd5b505af115801561023e573d6000803e3d6000fd5b505050506040513d601f19601f8201168201806040525081019061026291906104d8565b600460003373ffffffffffffffffffffffffffffffffffffffff1673ffffffffffffffffffffffffffffffffffffffff168152602001908152602001600020819055503360056000600460003373ffffffffffffffffffffffffffffffffffffffff1673ffffffffffffffffffffffffffffffffffffffff16815260200190815260200160002054815260200190815260200160002060006101000a81548173ffffffffffffffffffffffffffffffffffffffff021916908373ffffffffffffffffffffffffffffffffffffffff160217905550565b8060008151811061034c5761034b61076d565b5b6020026020010151600660006005600086815260200190815260200160002060009054906101000a900473ffffffffffffffffffffffffffffffffffffffff1673ffffffffffffffffffffffffffffffffffffffff1673ffffffffffffffffffffffffffffffffffffffff168152602001908152602001600020819055505050565b60006103e16103dc84610686565b610661565b90508083825260208201905082856020860282011115610404576104036107d0565b5b60005b85811015610434578161041a8882610481565b845260208401935060208301925050600181019050610407565b5050509392505050565b60008135905061044d816107f0565b92915050565b600082601f830112610468576104676107cb565b5b81356104788482602086016103ce565b91505092915050565b60008135905061049081610807565b92915050565b6000815190506104a581610807565b92915050565b6000602082840312156104c1576104c06107da565b5b60006104cf8482850161043e565b91505092915050565b6000602082840312156104ee576104ed6107da565b5b60006104fc84828501610496565b91505092915050565b6000806040838503121561051c5761051b6107da565b5b600061052a85828601610481565b925050602083013567ffffffffffffffff81111561054b5761054a6107d5565b5b61055785828601610453565b9150509250929050565b61056a816106b2565b82525050565b610579816106c4565b82525050565b6105888161072a565b82525050565b610597816106ce565b82525050565b6105a6816106fc565b82525050565b6105b581610706565b82525050565b6105c481610716565b82525050565b60006040820190506105df6000830185610561565b6105ec6020830184610561565b9392505050565b600060a0820190506106086000830188610570565b61061560208301876105bb565b610622604083018661058e565b61062f60608301856105ac565b61063c608083018461057f565b9695505050505050565b600060208201905061065b600083018461059d565b92915050565b600061066b61067c565b9050610677828261073c565b919050565b6000604051905090565b600067ffffffffffffffff8211156106a1576106a061079c565b5b602082029050602081019050919050565b60006106bd826106dc565b9050919050565b6000819050919050565b600061ffff82169050919050565b600073ffffffffffffffffffffffffffffffffffffffff82169050919050565b6000819050919050565b600063ffffffff82169050919050565b600067ffffffffffffffff82169050919050565b600061073582610706565b9050919050565b610745826107df565b810181811067ffffffffffffffff821117156107645761076361079c565b5b80604052505050565b7f4e487b7100000000000000000000000000000000000000000000000000000000600052603260045260246000fd5b7f4e487b7100000000000000000000000000000000000000000000000000000000600052604160045260246000fd5b600080fd5b600080fd5b600080fd5b600080fd5b6000601f19601f8301169050919050565b6107f9816106b2565b811461080457600080fd5b50565b610810816106fc565b811461081b57600080fd5b5056fea26469706673582212207119d68acf7f233b86ec8f0c4d515f2b5455e01c5ce0eb68d5d9358643cd2eab64736f6c63430008070033",
  "immutableReferences": {
    "759": [
      {
        "length": 32,
        "start": 158
      },
      {
        "length": 32,
        "start": 242
      }
    ]
  },
  "source": "// SPDX-License-Identifier: MIT\r\n// An example of a consumer contract that relies on a subscription for funding.\r\npragma solidity ^0.8.7;\r\n\r\nimport \"./imported/VRFCoordinatorV2Interface.sol\";\r\nimport \"./imported/VRFConsumerBaseV2.sol\";\r\n\r\ncontract VRFv2Consumer is VRFConsumerBaseV2 {\r\n    VRFCoordinatorV2Interface COORDINATOR;\r\n\r\n    // Your subscription ID.\r\n    uint64 s_subscriptionId;\r\n\r\n    // Rinkeby coordinator. For other networks,\r\n    // see https://docs.chain.link/docs/vrf-contracts/#configurations\r\n    address vrfCoordinator = 0x6168499c0cFfCaCD319c818142124B7A15E857ab;\r\n\r\n    // The gas lane to use, which specifies the maximum gas price to bump to.\r\n    // For a list of available gas lanes on each network,\r\n    // see https://docs.chain.link/docs/vrf-contracts/#configurations\r\n    bytes32 keyHash =\r\n        0xd89b2bf150e3b9e13446986e571fb9cab24b13cea0a43ea20a6049a85cc807cc;\r\n\r\n    // Depends on the number of requested values that you want sent to the\r\n    // fulfillRandomWords() function. Storing each word costs about 20,000 gas,\r\n    // so 100,000 is a safe default for this example contract. Test and adjust\r\n    // this limit based on the network that you select, the size of the request,\r\n    // and the processing of the callback request in the fulfillRandomWords()\r\n    // function.\r\n    uint32 callbackGasLimit = 100000;\r\n\r\n    // The default is 3, but you can set this higher.\r\n    uint16 requestConfirmations = 3;\r\n\r\n    // For this example, retrieve 2 random values in one request.\r\n    // Cannot exceed VRFCoordinatorV2.MAX_NUM_WORDS.\r\n    //uint32 numWords =  2;\r\n\r\n    //uint256[] public s_randomWords;\r\n    //uint256 public s_requestId;\r\n    address s_owner;\r\n    mapping(address => uint256) requestIds;\r\n    mapping(uint256 => address) addressByRequestId;\r\n    mapping(address => uint256) public randomWordByAddress;\r\n\r\n    constructor(uint64 subscriptionId) VRFConsumerBaseV2(vrfCoordinator) {\r\n        COORDINATOR = VRFCoordinatorV2Interface(vrfCoordinator);\r\n        s_owner = msg.sender;\r\n        s_subscriptionId = subscriptionId;\r\n    }\r\n\r\n    // Assumes the subscription is funded sufficiently.\r\n    function requestRandomWords() external {\r\n        // Will revert if subscription is not set and funded.\r\n        requestIds[msg.sender] = COORDINATOR.requestRandomWords(\r\n            keyHash,\r\n            s_subscriptionId,\r\n            requestConfirmations,\r\n            callbackGasLimit,\r\n            1\r\n        );\r\n        addressByRequestId[requestIds[msg.sender]] = msg.sender;\r\n    }\r\n\r\n    /// @dev Called by the Chainlink vrfCoordinator. Assigns a seed to the address of the raffle creator.\r\n    function fulfillRandomWords(\r\n        uint256 requestId, /* requestId */\r\n        uint256[] memory randomWords\r\n    ) internal override {\r\n        randomWordByAddress[addressByRequestId[requestId]] = randomWords[0];\r\n    }\r\n\r\n    modifier onlyOwner() {\r\n        require(msg.sender == s_owner);\r\n        _;\r\n    }\r\n}\r\n",
  "sourcePath": "C:\\Users\\badza\\Desktop\\Crypto\\Solidity\\ChainlinkHackathon2022\\prize-distributor\\contracts\\VRFv2Consumer.sol",
  "compiler": {
    "name": "solc",
    "version": "0.8.7+commit.e28d00a7.Emscripten.clang"
  },
  "schemaVersion": "3.4.7",
  "updatedAt": "2023-01-14T12:25:35.921Z",
  "devdoc": {
    "kind": "dev",
    "methods": {},
    "version": 1
  },
  "userdoc": {
    "kind": "user",
    "methods": {},
    "version": 1
  }
}